:0E022D004800510059005A0054004D004C008A
:0402A0000230000028
:0B023B00EF1FAC0670011E4C70F62295
:10000300759850758920758780758DFA758BFAD22E
:06001300ACD2AFD28E2238
:0601F0008B388A39893AC0
:1001F600E4FFEFC39402748094805018AB38AA3998
:10020600A93A8F827583001201C3F5993099FDC210
:04021600990F80DEDE
:01021A0022C1
:10002600753200753364E4F534F535F536F537C2C7
:10003600B27F64FE12023BE4F580120003D280D246
:1000460085E5086434701A120019E53345326009F3
:100056007BFF7A02792D1201F0E4F532F5330200C6
:10006600EDE5086433701C120288E53364014532FD
:1000760060097BFF7A02792F1201F0753200753321
:10008600018064E5086432701C12028EE533640256
:10009600453260097BFF7A0279311201F075320030
:1000A6007533028042E5086431701C120294E53310
:1000B6006403453260097BFF7A0279331201F075D9
:1000C60032007533038020E5086430701A12029AF4
:1000D600E5336404453260097BFF7A027935120103
:1000E600F0753200753304E508FD7C006413701C5E
:1000F600D2A7E5336405453260097BFF7A0279377A
:100106001201F0753200753305020047ED64124C9A
:100116006003020047C2A7E5336406453260097BE7
:10012600FF7A0279391201F0753200753306020042
:010136004781
:0300230002021BBB
:07021B00C0D075D000C00740
:06022200AF998F08C2989D
:05022800D007D0D03228
:0B024600D281C2827F887E1302023B3F
:0B025100D281D2827F327E0002023B8D
:0B025C00C281D2827F327E0002023B92
:0B026700D283C2847F327E0002023B83
:0B027200D283D2847F327E0002023B68
:0B027D00C283D2847F327E0002023B6D
:060019001202460202671C
:0602880012025C02027D7F
:06028E0012024602027D8F
:0602940012026702025C89
:06029A0012025102027283
:03000000020137C3
:0C013700787FE4F6D8FD75813A02017E65
:1001C300BB010CE58229F582E5833AF583E02250F1
:1001D30006E92582F8E622BBFE06E92582F8E2223B
:0D01E300E58229F582E5833AF583E4932255
:10014300020026E493A3F8E493A34003F68001F2AC
:1001530008DFF48029E493A3F85407240CC8C333BD
:10016300C4540F4420C8834004F456800146F6DF8C
:10017300E4800B01020408102040809002A0E47E7A
:10018300019360BCA3FF543F30E509541FFEE49381
:10019300A360010ECF54C025E060A840B8E493A348
:1001A300FAE493A3F8E493A3C8C582C8CAC583CA73
:1001B300F0A3C8C582C8CAC583CADFE9DEE780BE2B
:0102A4000059
:00000001FF
